:100000000EC020C0AAC01EC01DC01CC01BC01AC08C
:1000100019C018C017C016C015C014C013C01124D1
:100020001FBECFE5D2E0DEBFCDBF10E0A0E6B0E05E
:10003000ECEBF1E002C005900D92A036B107D9F7C4
:1000400096D0BAC0DDCF8AB583638ABD83B7896095
:1000500083BF88E189BD88BD089585B3886185BB6C
:100060008BB780628BBF089522E128BD52E0E8E1A2
:1000700020E030E0281739074CF408B601FEFDCF28
:1000800048B7426048BF2F5F3F4FF4CFE8BDCB0178
:10009000513011F051E0ECCF0895CF92DF92EF9202
:1000A000FF92CF93DF936B017C0112BE68E170E099
:1000B00080E690E0D9DFC0E0D0E0D701C6010C2E89
:1000C00004C0B695A795979587950A94D2F768E1ED
:1000D00070E080FF03C080E390E002C088E190E020
:1000E000C3DF2196C431D10541F7DF91CF91FF9055
:1000F000EF90DF90CF900895CF92DF92EF92FF9232
:100100006C01990FEE08FF0887E0CC0CDD1CEE1C9B
:10011000FF1C8A95D1F7AB01770F660B770BC42ACA
:10012000D52AE62AF72AC09AC701B601B6DF6EEAD9
:1001300071E080E090E098DFC701B601AEDF6EEAC3
:1001400071E080E090E090DFC701B601A6DFC098C3
:10015000FF90EF90DF90CF9008951F920F920FB60F
:100160000F9211240F900FBE0F901F90189587B318
:1001700087BB88B3886188BB87B3836087BB85B73B
:10018000877E806185BF37985EDF67DF85B78062D5
:1001900085BF78948895B49903C06DE270E004C07F
:1001A000B39905C067E370E08AE39EE1A5DFB49BE5
:0C01B000FECFB39BFCCFEACFF894FFCF4A
:00000001FF
